{
  "_format": "hh-sol-artifact-1",
  "contractName": "CredentialFactory",
  "sourceName": "contracts/CredentialFactory.sol",
  "abi": [
    {
      "anonymous": false,
      "inputs": [
        {
          "indexed": false,
          "internalType": "address",
          "name": "institution",
          "type": "address"
        },
        {
          "indexed": false,
          "internalType": "address",
          "name": "contractAddress",
          "type": "address"
        }
      ],
      "name": "InstitutionDeployed",
      "type": "event"
    },
    {
      "inputs": [
        {
          "internalType": "string",
          "name": "name",
          "type": "string"
        },
        {
          "internalType": "string",
          "name": "uri",
          "type": "string"
        }
      ],
      "name": "deployInstitutionContract",
      "outputs": [],
      "stateMutability": "nonpayable",
      "type": "function"
    },
    {
      "inputs": [
        {
          "internalType": "address",
          "name": "institution",
          "type": "address"
        }
      ],
      "name": "getInstitutionContract",
      "outputs": [
        {
          "internalType": "address",
          "name": "",
          "type": "address"
        }
      ],
      "stateMutability": "view",
      "type": "function"
    },
    {
      "inputs": [
        {
          "internalType": "address",
          "name": "",
          "type": "address"
        }
      ],
      "name": "institutionContracts",
      "outputs": [
        {
          "internalType": "address",
          "name": "",
          "type": "address"
        }
      ],
      "stateMutability": "view",
      "type": "function"
    }
  ],
  "bytecode": "0x6080604052348015600f57600080fd5b50613c5a8061001f6000396000f3fe608060405234801561001057600080fd5b50600436106100415760003560e01c8063623863921461004657806378fd747d14610076578063a7db8c9c146100a6575b600080fd5b610060600480360381019061005b91906103a0565b6100c2565b60405161006d91906103dc565b60405180910390f35b610090600480360381019061008b91906103a0565b6100f5565b60405161009d91906103dc565b60405180910390f35b6100c060048036038101906100bb919061053d565b61015d565b005b60006020528060005260406000206000915054906101000a900473ffffffffffffffffffffffffffffffffffffffff1681565b60008060008373ffffffffffffffffffffffffffffffffffffffff1673ffffffffffffffffffffffffffffffffffffffff16815260200190815260200160002060009054906101000a900473ffffffffffffffffffffffffffffffffffffffff169050919050565b600073ffffffffffffffffffffffffffffffffffffffff166000803373ffffffffffffffffffffffffffffffffffffffff1673ffffffffffffffffffffffffffffffffffffffff16815260200190815260200160002060009054906101000a900473ffffffffffffffffffffffffffffffffffffffff1673ffffffffffffffffffffffffffffffffffffffff161461022a576040517f08c379a000000000000000000000000000000000000000000000000000000000815260040161022190610638565b60405180910390fd5b600033838360405161023b90610321565b610247939291906106c6565b604051809103906000f080158015610263573d6000803e3d6000fd5b509050806000803373ffffffffffffffffffffffffffffffffffffffff1673ffffffffffffffffffffffffffffffffffffffff16815260200190815260200160002060006101000a81548173ffffffffffffffffffffffffffffffffffffffff021916908373ffffffffffffffffffffffffffffffffffffffff1602179055507ff48d7566c30f005b611da1e2154f67b2a2fdb249bd2030b6b9af717e6ced3617338260405161031492919061070b565b60405180910390a1505050565b6134f08061073583390190565b6000604051905090565b600080fd5b600080fd5b600073ffffffffffffffffffffffffffffffffffffffff82169050919050565b600061036d82610342565b9050919050565b61037d81610362565b811461038857600080fd5b50565b60008135905061039a81610374565b92915050565b6000602082840312156103b6576103b5610338565b5b60006103c48482850161038b565b91505092915050565b6103d681610362565b82525050565b60006020820190506103f160008301846103cd565b92915050565b600080fd5b600080fd5b6000601f19601f8301169050919050565b7f4e487b7100000000000000000000000000000000000000000000000000000000600052604160045260246000fd5b61044a82610401565b810181811067ffffffffffffffff8211171561046957610468610412565b5b80604052505050565b600061047c61032e565b90506104888282610441565b919050565b600067ffffffffffffffff8211156104a8576104a7610412565b5b6104b182610401565b9050602081019050919050565b82818337600083830152505050565b60006104e06104db8461048d565b610472565b9050828152602081018484840111156104fc576104fb6103fc565b5b6105078482856104be565b509392505050565b600082601f830112610524576105236103f7565b5b81356105348482602086016104cd565b91505092915050565b6000806040838503121561055457610553610338565b5b600083013567ffffffffffffffff8111156105725761057161033d565b5b61057e8582860161050f565b925050602083013567ffffffffffffffff81111561059f5761059e61033d565b5b6105ab8582860161050f565b9150509250929050565b600082825260208201905092915050565b7f496e737469747574696f6e20616c726561647920686173206120636f6e74726160008201527f6374000000000000000000000000000000000000000000000000000000000000602082015250565b60006106226022836105b5565b915061062d826105c6565b604082019050919050565b6000602082019050818103600083015261065181610615565b9050919050565b600081519050919050565b60005b83811015610681578082015181840152602081019050610666565b60008484015250505050565b600061069882610658565b6106a281856105b5565b93506106b2818560208601610663565b6106bb81610401565b840191505092915050565b60006060820190506106db60008301866103cd565b81810360208301526106ed818561068d565b90508181036040830152610701818461068d565b9050949350505050565b600060408201905061072060008301856103cd565b61072d60208301846103cd565b939250505056fe6080604052600160085534801561001557600080fd5b506040516134f03803806134f08339818101604052810190610037919061038f565b8281610048816100e360201b60201c565b50600073ffffffffffffffffffffffffffffffffffffffff168173ffffffffffffffffffffffffffffffffffffffff16036100bb5760006040517f1e4fbdf70000000000000000000000000000000000000000000000000000000081526004016100b29190610429565b60405180910390fd5b6100ca816100f660201b60201c565b5081600490816100da9190610665565b50505050610737565b80600290816100f29190610665565b5050565b6000600360009054906101000a900473ffffffffffffffffffffffffffffffffffffffff16905081600360006101000a81548173ffffffffffffffffffffffffffffffffffffffff021916908373ffffffffffffffffffffffffffffffffffffffff1602179055508173ffffffffffffffffffffffffffffffffffffffff168173ffffffffffffffffffffffffffffffffffffffff167f8be0079c531659141344cd1fd0a4f28419497f9722a3daafe3b4186f6b6457e060405160405180910390a35050565b6000604051905090565b600080fd5b600080fd5b600073ffffffffffffffffffffffffffffffffffffffff82169050919050565b60006101fb826101d0565b9050919050565b61020b816101f0565b811461021657600080fd5b50565b60008151905061022881610202565b92915050565b600080fd5b600080fd5b6000601f19601f8301169050919050565b7f4e487b7100000000000000000000000000000000000000000000000000000000600052604160045260246000fd5b61028182610238565b810181811067ffffffffffffffff821117156102a05761029f610249565b5b80604052505050565b60006102b36101bc565b90506102bf8282610278565b919050565b600067ffffffffffffffff8211156102df576102de610249565b5b6102e882610238565b9050602081019050919050565b60005b838110156103135780820151818401526020810190506102f8565b60008484015250505050565b600061033261032d846102c4565b6102a9565b90508281526020810184848401111561034e5761034d610233565b5b6103598482856102f5565b509392505050565b600082601f8301126103765761037561022e565b5b815161038684826020860161031f565b91505092915050565b6000806000606084860312156103a8576103a76101c6565b5b60006103b686828701610219565b935050602084015167ffffffffffffffff8111156103d7576103d66101cb565b5b6103e386828701610361565b925050604084015167ffffffffffffffff811115610404576104036101cb565b5b61041086828701610361565b9150509250925092565b610423816101f0565b82525050565b600060208201905061043e600083018461041a565b92915050565b600081519050919050565b7f4e487b7100000000000000000000000000000000000000000000000000000000600052602260045260246000fd5b6000600282049050600182168061049657607f821691505b6020821081036104a9576104a861044f565b5b50919050565b60008190508160005260206000209050919050565b60006020601f8301049050919050565b600082821b905092915050565b6000600883026105117fffffffffffffffffffffffffffffffffffffffffffffffffffffffffffffffff826104d4565b61051b86836104d4565b95508019841693508086168417925050509392505050565b6000819050919050565b6000819050919050565b600061056261055d61055884610533565b61053d565b610533565b9050919050565b6000819050919050565b61057c83610547565b61059061058882610569565b8484546104e1565b825550505050565b600090565b6105a5610598565b6105b0818484610573565b505050565b5b818110156105d4576105c960008261059d565b6001810190506105b6565b5050565b601f821115610619576105ea816104af565b6105f3846104c4565b81016020851015610602578190505b61061661060e856104c4565b8301826105b5565b50505b505050565b600082821c905092915050565b600061063c6000198460080261061e565b1980831691505092915050565b6000610655838361062b565b9150826002028217905092915050565b61066e82610444565b67ffffffffffffffff81111561068757610686610249565b5b610691825461047e565b61069c8282856105d8565b600060209050601f8311600181146106cf57600084156106bd578287015190505b6106c78582610649565b86555061072f565b601f1984166106dd866104af565b60005b82811015610705578489015182556001820191506020850194506020810190506106e0565b86831015610722578489015161071e601f89168261062b565b8355505b6001600288020188555050505b505050505050565b612daa806107466000396000f3fe608060405234801561001057600080fd5b50600436106101205760003560e01c80634e1273f4116100ad578063b9fbfb8011610071578063b9fbfb8014610317578063d58778d614610347578063e985e9c514610377578063f242432a146103a7578063f2fde38b146103c357610120565b80634e1273f414610287578063715018a6146102b75780638da5cb5b146102c15780639dca4903146102df578063a22cb465146102fb57610120565b80631b87278d116100f45780631b87278d146101e55780632eb2c2d614610201578063383ec7cc1461021d578063396b233f1461024d5780633a133e2c1461026957610120565b8062fdd58e1461012557806301ffc9a7146101555780630e89341c146101855780631330b61b146101b5575b600080fd5b61013f600480360381019061013a9190611c26565b6103df565b60405161014c9190611c75565b60405180910390f35b61016f600480360381019061016a9190611ce8565b610439565b60405161017c9190611d30565b60405180910390f35b61019f600480360381019061019a9190611d4b565b61051b565b6040516101ac9190611e08565b60405180910390f35b6101cf60048036038101906101ca9190611c26565b6105c0565b6040516101dc9190611d30565b60405180910390f35b6101ff60048036038101906101fa9190611d4b565b6105d6565b005b61021b60048036038101906102169190612027565b6106a5565b005b61023760048036038101906102329190611d4b565b61074d565b6040516102449190611d30565b60405180910390f35b61026760048036038101906102629190611c26565b610778565b005b610271610887565b60405161027e9190611e08565b60405180910390f35b6102a1600480360381019061029c91906121b9565b610915565b6040516102ae91906122ef565b60405180910390f35b6102bf610a1e565b005b6102c9610a32565b6040516102d69190612320565b60405180910390f35b6102f960048036038101906102f491906123dc565b610a5c565b005b61031560048036038101906103109190612480565b610b01565b005b610331600480360381019061032c9190611d4b565b610b17565b60405161033e9190611d30565b60405180910390f35b610361600480360381019061035c9190611d4b565b610b37565b60405161036e9190611e08565b60405180910390f35b610391600480360381019061038c91906124c0565b610bd7565b60405161039e9190611d30565b60405180910390f35b6103c160048036038101906103bc9190612500565b610c6b565b005b6103dd60048036038101906103d89190612597565b610d13565b005b600080600083815260200190815260200160002060008473ffffffffffffffffffffffffffffffffffffffff1673ffffffffffffffffffffffffffffffffffffffff16815260200190815260200160002054905092915050565b60007fd9b67a26000000000000000000000000000000000000000000000000000000007bffffffffffffffffffffffffffffffffffffffffffffffffffffffff1916827bffffffffffffffffffffffffffffffffffffffffffffffffffffffff1916148061050457507f0e89341c000000000000000000000000000000000000000000000000000000007bffffffffffffffffffffffffffffffffffffffffffffffffffffffff1916827bffffffffffffffffffffffffffffffffffffffffffffffffffffffff1916145b80610514575061051382610d99565b5b9050919050565b606060056000838152602001908152602001600020805461053b906125f3565b80601f0160208091040260200160405190810160405280929190818152602001828054610567906125f3565b80156105b45780601f10610589576101008083540402835291602001916105b4565b820191906000526020600020905b81548152906001019060200180831161059757829003601f168201915b50505050509050919050565b6000806105cd84846103df565b11905092915050565b6105de610e03565b6007600082815260200190815260200160002060009054906101000a900460ff161561063f576040517f08c379a000000000000000000000000000000000000000000000000000000000815260040161063690612670565b60405180910390fd5b60016007600083815260200190815260200160002060006101000a81548160ff0219169083151502179055507f0d47d5695004d2a4180ebb40037756439184993a0d1c6d4a8ff3a6aa932560748160405161069a9190611c75565b60405180910390a150565b60006106af610e8a565b90508073ffffffffffffffffffffffffffffffffffffffff168673ffffffffffffffffffffffffffffffffffffffff16141580156106f457506106f28682610bd7565b155b156107385780866040517fe237d92200000000000000000000000000000000000000000000000000000000815260040161072f929190612690565b60405180910390fd5b6107458686868686610e92565b505050505050565b60006007600083815260200190815260200160002060009054906101000a900460ff16159050919050565b610780610e03565b600061078c83836103df565b146107cc576040517f08c379a00000000000000000000000000000000000000000000000000000000081526004016107c39061272b565b60405180910390fd5b60006006600083815260200190815260200160002080546107ec906125f3565b90501161082e576040517f08c379a000000000000000000000000000000000000000000000000000000000815260040161082590612797565b60405180910390fd5b61084a8282600160405180602001604052806000815250610f8a565b7fbf94256c91da1335919ad62c5685e1dc105a64235fbbfd7a039ccedec4eb20e4818360405161087b9291906127b7565b60405180910390a15050565b60048054610894906125f3565b80601f01602080910402602001604051908101604052809291908181526020018280546108c0906125f3565b801561090d5780601f106108e25761010080835404028352916020019161090d565b820191906000526020600020905b8154815290600101906020018083116108f057829003601f168201915b505050505081565b6060815183511461096157815183516040517f5b0599910000000000000000000000000000000000000000000000000000000081526004016109589291906127e0565b60405180910390fd5b6000835167ffffffffffffffff81111561097e5761097d611e2f565b5b6040519080825280602002602001820160405280156109ac5781602001602082028036833780820191505090505b50905060005b8451811015610a13576109e96109d1828761102390919063ffffffff16565b6109e4838761103790919063ffffffff16565b6103df565b8282815181106109fc576109fb612809565b5b6020026020010181815250508060010190506109b2565b508091505092915050565b610a26610e03565b610a30600061104b565b565b6000600360009054906101000a900473ffffffffffffffffffffffffffffffffffffffff16905090565b610a64610e03565b600060086000815480929190610a7990612867565b91905055905082600660008381526020019081526020016000209081610a9f9190612a5b565b5081600560008381526020019081526020016000209081610ac09190612a5b565b507f7b274fcb84887a020ff9584a067b7a8f6d78a9c59ba3d5dda18be930f10056f9838233604051610af493929190612b2d565b60405180910390a1505050565b610b13610b0c610e8a565b8383611111565b5050565b60076020528060005260406000206000915054906101000a900460ff1681565b60066020528060005260406000206000915090508054610b56906125f3565b80601f0160208091040260200160405190810160405280929190818152602001828054610b82906125f3565b8015610bcf5780601f10610ba457610100808354040283529160200191610bcf565b820191906000526020600020905b815481529060010190602001808311610bb257829003601f168201915b505050505081565b6000600160008473ffffffffffffffffffffffffffffffffffffffff1673ffffffffffffffffffffffffffffffffffffffff16815260200190815260200160002060008373ffffffffffffffffffffffffffffffffffffffff1673ffffffffffffffffffffffffffffffffffffffff16815260200190815260200160002060009054906101000a900460ff16905092915050565b6000610c75610e8a565b90508073ffffffffffffffffffffffffffffffffffffffff168673ffffffffffffffffffffffffffffffffffffffff1614158015610cba5750610cb88682610bd7565b155b15610cfe5780866040517fe237d922000000000000000000000000000000000000000000000000000000008152600401610cf5929190612690565b60405180910390fd5b610d0b8686868686611281565b505050505050565b610d1b610e03565b600073ffffffffffffffffffffffffffffffffffffffff168173ffffffffffffffffffffffffffffffffffffffff1603610d8d5760006040517f1e4fbdf7000000000000000000000000000000000000000000000000000000008152600401610d849190612320565b60405180910390fd5b610d968161104b565b50565b60007f01ffc9a7000000000000000000000000000000000000000000000000000000007bffffffffffffffffffffffffffffffffffffffffffffffffffffffff1916827bffffffffffffffffffffffffffffffffffffffffffffffffffffffff1916149050919050565b610e0b610e8a565b73ffffffffffffffffffffffffffffffffffffffff16610e29610a32565b73ffffffffffffffffffffffffffffffffffffffff1614610e8857610e4c610e8a565b6040517f118cdaa7000000000000000000000000000000000000000000000000000000008152600401610e7f9190612320565b60405180910390fd5b565b600033905090565b600073ffffffffffffffffffffffffffffffffffffffff168473ffffffffffffffffffffffffffffffffffffffff1603610f045760006040517f57f447ce000000000000000000000000000000000000000000000000000000008152600401610efb9190612320565b60405180910390fd5b600073ffffffffffffffffffffffffffffffffffffffff168573ffffffffffffffffffffffffffffffffffffffff1603610f765760006040517f01a83514000000000000000000000000000000000000000000000000000000008152600401610f6d9190612320565b60405180910390fd5b610f83858585858561138c565b5050505050565b600073ffffffffffffffffffffffffffffffffffffffff168473ffffffffffffffffffffffffffffffffffffffff1603610ffc5760006040517f57f447ce000000000000000000000000000000000000000000000000000000008152600401610ff39190612320565b60405180910390fd5b600080611009858561143e565b9150915061101b60008784848761138c565b505050505050565b600060208202602084010151905092915050565b600060208202602084010151905092915050565b6000600360009054906101000a900473ffffffffffffffffffffffffffffffffffffffff16905081600360006101000a81548173ffffffffffffffffffffffffffffffffffffffff021916908373ffffffffffffffffffffffffffffffffffffffff1602179055508173ffffffffffffffffffffffffffffffffffffffff168173ffffffffffffffffffffffffffffffffffffffff167f8be0079c531659141344cd1fd0a4f28419497f9722a3daafe3b4186f6b6457e060405160405180910390a35050565b600073ffffffffffffffffffffffffffffffffffffffff168273ffffffffffffffffffffffffffffffffffffffff16036111835760006040517fced3e10000000000000000000000000000000000000000000000000000000000815260040161117a9190612320565b60405180910390fd5b80600160008573ffffffffffffffffffffffffffffffffffffffff1673ffffffffffffffffffffffffffffffffffffffff16815260200190815260200160002060008473ffffffffffffffffffffffffffffffffffffffff1673ffffffffffffffffffffffffffffffffffffffff16815260200190815260200160002060006101000a81548160ff0219169083151502179055508173ffffffffffffffffffffffffffffffffffffffff168373ffffffffffffffffffffffffffffffffffffffff167f17307eab39ab6107e8899845ad3d59bd9653f200f220920489ca2b5937696c31836040516112749190611d30565b60405180910390a3505050565b600073ffffffffffffffffffffffffffffffffffffffff168473ffffffffffffffffffffffffffffffffffffffff16036112f35760006040517f57f447ce0000000000000000000000000000000000000000000000000000000081526004016112ea9190612320565b60405180910390fd5b600073ffffffffffffffffffffffffffffffffffffffff168573ffffffffffffffffffffffffffffffffffffffff16036113655760006040517f01a8351400000000000000000000000000000000000000000000000000000000815260040161135c9190612320565b60405180910390fd5b600080611372858561143e565b91509150611383878784848761138c565b50505050505050565b6113988585858561146e565b600073ffffffffffffffffffffffffffffffffffffffff168473ffffffffffffffffffffffffffffffffffffffff16146114375760006113d6610e8a565b905060018451036114265760006113f760008661103790919063ffffffff16565b9050600061140f60008661103790919063ffffffff16565b905061141f838989858589611816565b5050611435565b6114348187878787876119ca565b5b505b5050505050565b60608060405191506001825283602083015260408201905060018152826020820152604081016040529250929050565b80518251146114b857815181516040517f5b0599910000000000000000000000000000000000000000000000000000000081526004016114af9291906127e0565b60405180910390fd5b60006114c2610e8a565b905060005b83518110156116d15760006114e5828661103790919063ffffffff16565b905060006114fc838661103790919063ffffffff16565b9050600073ffffffffffffffffffffffffffffffffffffffff168873ffffffffffffffffffffffffffffffffffffffff161461162957600080600084815260200190815260200160002060008a73ffffffffffffffffffffffffffffffffffffffff1673ffffffffffffffffffffffffffffffffffffffff168152602001908152602001600020549050818110156115d157888183856040517f03dee4c50000000000000000000000000000000000000000000000000000000081526004016115c89493929190612b6b565b60405180910390fd5b81810360008085815260200190815260200160002060008b73ffffffffffffffffffffffffffffffffffffffff1673ffffffffffffffffffffffffffffffffffffffff16815260200190815260200160002081905550505b600073ffffffffffffffffffffffffffffffffffffffff168773ffffffffffffffffffffffffffffffffffffffff16146116c4578060008084815260200190815260200160002060008973ffffffffffffffffffffffffffffffffffffffff1673ffffffffffffffffffffffffffffffffffffffff16815260200190815260200160002060008282546116bc9190612bb0565b925050819055505b50508060010190506114c7565b5060018351036117905760006116f160008561103790919063ffffffff16565b9050600061170960008561103790919063ffffffff16565b90508573ffffffffffffffffffffffffffffffffffffffff168773ffffffffffffffffffffffffffffffffffffffff168473ffffffffffffffffffffffffffffffffffffffff167fc3d58168c5ae7397731d063d5bbf3d657854427343f4c083240f7aacaa2d0f6285856040516117819291906127e0565b60405180910390a4505061180f565b8373ffffffffffffffffffffffffffffffffffffffff168573ffffffffffffffffffffffffffffffffffffffff168273ffffffffffffffffffffffffffffffffffffffff167f4a39dc06d4c0dbc64b70af90fd698a233a518aa5d07e595d983b8c0526c8f7fb8686604051611806929190612be4565b60405180910390a45b5050505050565b60008473ffffffffffffffffffffffffffffffffffffffff163b11156119c2578373ffffffffffffffffffffffffffffffffffffffff1663f23a6e6187878686866040518663ffffffff1660e01b8152600401611877959493929190612c70565b6020604051808303816000875af19250505080156118b357506040513d601f19601f820116820180604052508101906118b09190612cdf565b60015b611937573d80600081146118e3576040519150601f19603f3d011682016040523d82523d6000602084013e6118e8565b606091505b50600081510361192f57846040517f57f447ce0000000000000000000000000000000000000000000000000000000081526004016119269190612320565b60405180910390fd5b805181602001fd5b63f23a6e6160e01b7bffffffffffffffffffffffffffffffffffffffffffffffffffffffff1916817bffffffffffffffffffffffffffffffffffffffffffffffffffffffff1916146119c057846040517f57f447ce0000000000000000000000000000000000000000000000000000000081526004016119b79190612320565b60405180910390fd5b505b505050505050565b60008473ffffffffffffffffffffffffffffffffffffffff163b1115611b76578373ffffffffffffffffffffffffffffffffffffffff1663bc197c8187878686866040518663ffffffff1660e01b8152600401611a2b959493929190612d0c565b6020604051808303816000875af1925050508015611a6757506040513d601f19601f82011682018060405250810190611a649190612cdf565b60015b611aeb573d8060008114611a97576040519150601f19603f3d011682016040523d82523d6000602084013e611a9c565b606091505b506000815103611ae357846040517f57f447ce000000000000000000000000000000000000000000000000000000008152600401611ada9190612320565b60405180910390fd5b805181602001fd5b63bc197c8160e01b7bffffffffffffffffffffffffffffffffffffffffffffffffffffffff1916817bffffffffffffffffffffffffffffffffffffffffffffffffffffffff191614611b7457846040517f57f447ce000000000000000000000000000000000000000000000000000000008152600401611b6b9190612320565b60405180910390fd5b505b505050505050565b6000604051905090565b600080fd5b600080fd5b600073ffffffffffffffffffffffffffffffffffffffff82169050919050565b6000611bbd82611b92565b9050919050565b611bcd81611bb2565b8114611bd857600080fd5b50565b600081359050611bea81611bc4565b92915050565b6000819050919050565b611c0381611bf0565b8114611c0e57600080fd5b50565b600081359050611c2081611bfa565b92915050565b60008060408385031215611c3d57611c3c611b88565b5b6000611c4b85828601611bdb565b9250506020611c5c85828601611c11565b9150509250929050565b611c6f81611bf0565b82525050565b6000602082019050611c8a6000830184611c66565b92915050565b60007fffffffff0000000000000000000000000000000000000000000000000000000082169050919050565b611cc581611c90565b8114611cd057600080fd5b50565b600081359050611ce281611cbc565b92915050565b600060208284031215611cfe57611cfd611b88565b5b6000611d0c84828501611cd3565b91505092915050565b60008115159050919050565b611d2a81611d15565b82525050565b6000602082019050611d456000830184611d21565b92915050565b600060208284031215611d6157611d60611b88565b5b6000611d6f84828501611c11565b91505092915050565b600081519050919050565b600082825260208201905092915050565b60005b83811015611db2578082015181840152602081019050611d97565b60008484015250505050565b6000601f19601f8301169050919050565b6000611dda82611d78565b611de48185611d83565b9350611df4818560208601611d94565b611dfd81611dbe565b840191505092915050565b60006020820190508181036000830152611e228184611dcf565b905092915050565b600080fd5b7f4e487b7100000000000000000000000000000000000000000000000000000000600052604160045260246000fd5b611e6782611dbe565b810181811067ffffffffffffffff82111715611e8657611e85611e2f565b5b80604052505050565b6000611e99611b7e565b9050611ea58282611e5e565b919050565b600067ffffffffffffffff821115611ec557611ec4611e2f565b5b602082029050602081019050919050565b600080fd5b6000611eee611ee984611eaa565b611e8f565b90508083825260208201905060208402830185811115611f1157611f10611ed6565b5b835b81811015611f3a5780611f268882611c11565b845260208401935050602081019050611f13565b5050509392505050565b600082601f830112611f5957611f58611e2a565b5b8135611f69848260208601611edb565b91505092915050565b600080fd5b600067ffffffffffffffff821115611f9257611f91611e2f565b5b611f9b82611dbe565b9050602081019050919050565b82818337600083830152505050565b6000611fca611fc584611f77565b611e8f565b905082815260208101848484011115611fe657611fe5611f72565b5b611ff1848285611fa8565b509392505050565b600082601f83011261200e5761200d611e2a565b5b813561201e848260208601611fb7565b91505092915050565b600080600080600060a0868803121561204357612042611b88565b5b600061205188828901611bdb565b955050602061206288828901611bdb565b945050604086013567ffffffffffffffff81111561208357612082611b8d565b5b61208f88828901611f44565b935050606086013567ffffffffffffffff8111156120b0576120af611b8d565b5b6120bc88828901611f44565b925050608086013567ffffffffffffffff8111156120dd576120dc611b8d565b5b6120e988828901611ff9565b9150509295509295909350565b600067ffffffffffffffff82111561211157612110611e2f565b5b602082029050602081019050919050565b6000612135612130846120f6565b611e8f565b9050808382526020820190506020840283018581111561215857612157611ed6565b5b835b81811015612181578061216d8882611bdb565b84526020840193505060208101905061215a565b5050509392505050565b600082601f8301126121a05761219f611e2a565b5b81356121b0848260208601612122565b91505092915050565b600080604083850312156121d0576121cf611b88565b5b600083013567ffffffffffffffff8111156121ee576121ed611b8d565b5b6121fa8582860161218b565b925050602083013567ffffffffffffffff81111561221b5761221a611b8d565b5b61222785828601611f44565b9150509250929050565b600081519050919050565b600082825260208201905092915050565b6000819050602082019050919050565b61226681611bf0565b82525050565b6000612278838361225d565b60208301905092915050565b6000602082019050919050565b600061229c82612231565b6122a6818561223c565b93506122b18361224d565b8060005b838110156122e25781516122c9888261226c565b97506122d483612284565b9250506001810190506122b5565b5085935050505092915050565b600060208201905081810360008301526123098184612291565b905092915050565b61231a81611bb2565b82525050565b60006020820190506123356000830184612311565b92915050565b600067ffffffffffffffff82111561235657612355611e2f565b5b61235f82611dbe565b9050602081019050919050565b600061237f61237a8461233b565b611e8f565b90508281526020810184848401111561239b5761239a611f72565b5b6123a6848285611fa8565b509392505050565b600082601f8301126123c3576123c2611e2a565b5b81356123d384826020860161236c565b91505092915050565b600080604083850312156123f3576123f2611b88565b5b600083013567ffffffffffffffff81111561241157612410611b8d565b5b61241d858286016123ae565b925050602083013567ffffffffffffffff81111561243e5761243d611b8d565b5b61244a858286016123ae565b9150509250929050565b61245d81611d15565b811461246857600080fd5b50565b60008135905061247a81612454565b92915050565b6000806040838503121561249757612496611b88565b5b60006124a585828601611bdb565b92505060206124b68582860161246b565b9150509250929050565b600080604083850312156124d7576124d6611b88565b5b60006124e585828601611bdb565b92505060206124f685828601611bdb565b9150509250929050565b600080600080600060a0868803121561251c5761251b611b88565b5b600061252a88828901611bdb565b955050602061253b88828901611bdb565b945050604061254c88828901611c11565b935050606061255d88828901611c11565b925050608086013567ffffffffffffffff81111561257e5761257d611b8d565b5b61258a88828901611ff9565b9150509295509295909350565b6000602082840312156125ad576125ac611b88565b5b60006125bb84828501611bdb565b91505092915050565b7f4e487b7100000000000000000000000000000000000000000000000000000000600052602260045260246000fd5b6000600282049050600182168061260b57607f821691505b60208210810361261e5761261d6125c4565b5b50919050565b7f416c7265616479207265766f6b65640000000000000000000000000000000000600082015250565b600061265a600f83611d83565b915061266582612624565b602082019050919050565b600060208201905081810360008301526126898161264d565b9050919050565b60006040820190506126a56000830185612311565b6126b26020830184612311565b9392505050565b7f526563697069656e7420616c726561647920686173207468697320637265646560008201527f6e7469616c000000000000000000000000000000000000000000000000000000602082015250565b6000612715602583611d83565b9150612720826126b9565b604082019050919050565b6000602082019050818103600083015261274481612708565b9050919050565b7f43726564656e7469616c207479706520646f6573206e6f742065786973740000600082015250565b6000612781601e83611d83565b915061278c8261274b565b602082019050919050565b600060208201905081810360008301526127b081612774565b9050919050565b60006040820190506127cc6000830185611c66565b6127d96020830184612311565b9392505050565b60006040820190506127f56000830185611c66565b6128026020830184611c66565b9392505050565b7f4e487b7100000000000000000000000000000000000000000000000000000000600052603260045260246000fd5b7f4e487b7100000000000000000000000000000000000000000000000000000000600052601160045260246000fd5b600061287282611bf0565b91507fffffffffffffffffffffffffffffffffffffffffffffffffffffffffffffffff82036128a4576128a3612838565b5b600182019050919050565b60008190508160005260206000209050919050565b60006020601f8301049050919050565b600082821b905092915050565b6000600883026129117fffffffffffffffffffffffffffffffffffffffffffffffffffffffffffffffff826128d4565b61291b86836128d4565b95508019841693508086168417925050509392505050565b6000819050919050565b600061295861295361294e84611bf0565b612933565b611bf0565b9050919050565b6000819050919050565b6129728361293d565b61298661297e8261295f565b8484546128e1565b825550505050565b600090565b61299b61298e565b6129a6818484612969565b505050565b5b818110156129ca576129bf600082612993565b6001810190506129ac565b5050565b601f821115612a0f576129e0816128af565b6129e9846128c4565b810160208510156129f8578190505b612a0c612a04856128c4565b8301826129ab565b50505b505050565b600082821c905092915050565b6000612a3260001984600802612a14565b1980831691505092915050565b6000612a4b8383612a21565b9150826002028217905092915050565b612a6482611d78565b67ffffffffffffffff811115612a7d57612a7c611e2f565b5b612a8782546125f3565b612a928282856129ce565b600060209050601f831160018114612ac55760008415612ab3578287015190505b612abd8582612a3f565b865550612b25565b601f198416612ad3866128af565b60005b82811015612afb57848901518255600182019150602085019450602081019050612ad6565b86831015612b185784890151612b14601f891682612a21565b8355505b6001600288020188555050505b505050505050565b60006060820190508181036000830152612b478186611dcf565b9050612b566020830185611c66565b612b636040830184612311565b949350505050565b6000608082019050612b806000830187612311565b612b8d6020830186611c66565b612b9a6040830185611c66565b612ba76060830184611c66565b95945050505050565b6000612bbb82611bf0565b9150612bc683611bf0565b9250828201905080821115612bde57612bdd612838565b5b92915050565b60006040820190508181036000830152612bfe8185612291565b90508181036020830152612c128184612291565b90509392505050565b600081519050919050565b600082825260208201905092915050565b6000612c4282612c1b565b612c4c8185612c26565b9350612c5c818560208601611d94565b612c6581611dbe565b840191505092915050565b600060a082019050612c856000830188612311565b612c926020830187612311565b612c9f6040830186611c66565b612cac6060830185611c66565b8181036080830152612cbe8184612c37565b90509695505050505050565b600081519050612cd981611cbc565b92915050565b600060208284031215612cf557612cf4611b88565b5b6000612d0384828501612cca565b91505092915050565b600060a082019050612d216000830188612311565b612d2e6020830187612311565b8181036040830152612d408186612291565b90508181036060830152612d548185612291565b90508181036080830152612d688184612c37565b9050969550505050505056fea26469706673582212207431d99e53aac7d571ff63082dfc71caa8c151d617c9f35421489d811cd55a4064736f6c634300081c0033a2646970667358221220208d34177c18c9bfbd6807957132e89b06ad6c4029c62e8a5f27b8e5f9658fe864736f6c634300081c0033",
  "linkReferences": {},
  "deployedLinkReferences": {}
}